{
  "_format": "hh-sol-artifact-1",
  "contractName": "BasicNft",
  "sourceName": "contracts/BasicNFT.sol",
  "abi": [
    {
      "inputs": [],
      "stateMutability": "nonpayable",
      "type": "constructor"
    },
    {
      "anonymous": false,
      "inputs": [
        {
          "indexed": true,
          "internalType": "address",
          "name": "owner",
          "type": "address"
        },
        {
          "indexed": true,
          "internalType": "address",
          "name": "approved",
          "type": "address"
        },
        {
          "indexed": true,
          "internalType": "uint256",
          "name": "tokenId",
          "type": "uint256"
        }
      ],
      "name": "Approval",
      "type": "event"
    },
    {
      "anonymous": false,
      "inputs": [
        {
          "indexed": true,
          "internalType": "address",
          "name": "owner",
          "type": "address"
        },
        {
          "indexed": true,
          "internalType": "address",
          "name": "operator",
          "type": "address"
        },
        {
          "indexed": false,
          "internalType": "bool",
          "name": "approved",
          "type": "bool"
        }
      ],
      "name": "ApprovalForAll",
      "type": "event"
    },
    {
      "anonymous": false,
      "inputs": [
        {
          "indexed": true,
          "internalType": "address",
          "name": "from",
          "type": "address"
        },
        {
          "indexed": true,
          "internalType": "address",
          "name": "to",
          "type": "address"
        },
        {
          "indexed": true,
          "internalType": "uint256",
          "name": "tokenId",
          "type": "uint256"
        }
      ],
      "name": "Transfer",
      "type": "event"
    },
    {
      "inputs": [],
      "name": "TOKEN_URI",
      "outputs": [
        {
          "internalType": "string",
          "name": "",
          "type": "string"
        }
      ],
      "stateMutability": "view",
      "type": "function"
    },
    {
      "inputs": [
        {
          "internalType": "address",
          "name": "to",
          "type": "address"
        },
        {
          "internalType": "uint256",
          "name": "tokenId",
          "type": "uint256"
        }
      ],
      "name": "approve",
      "outputs": [],
      "stateMutability": "nonpayable",
      "type": "function"
    },
    {
      "inputs": [
        {
          "internalType": "address",
          "name": "owner",
          "type": "address"
        }
      ],
      "name": "balanceOf",
      "outputs": [
        {
          "internalType": "uint256",
          "name": "",
          "type": "uint256"
        }
      ],
      "stateMutability": "view",
      "type": "function"
    },
    {
      "inputs": [
        {
          "internalType": "uint256",
          "name": "tokenId",
          "type": "uint256"
        }
      ],
      "name": "getApproved",
      "outputs": [
        {
          "internalType": "address",
          "name": "",
          "type": "address"
        }
      ],
      "stateMutability": "view",
      "type": "function"
    },
    {
      "inputs": [
        {
          "internalType": "address",
          "name": "owner",
          "type": "address"
        },
        {
          "internalType": "address",
          "name": "operator",
          "type": "address"
        }
      ],
      "name": "isApprovedForAll",
      "outputs": [
        {
          "internalType": "bool",
          "name": "",
          "type": "bool"
        }
      ],
      "stateMutability": "view",
      "type": "function"
    },
    {
      "inputs": [],
      "name": "mintNft",
      "outputs": [
        {
          "internalType": "uint256",
          "name": "",
          "type": "uint256"
        }
      ],
      "stateMutability": "nonpayable",
      "type": "function"
    },
    {
      "inputs": [],
      "name": "name",
      "outputs": [
        {
          "internalType": "string",
          "name": "",
          "type": "string"
        }
      ],
      "stateMutability": "view",
      "type": "function"
    },
    {
      "inputs": [
        {
          "internalType": "uint256",
          "name": "tokenId",
          "type": "uint256"
        }
      ],
      "name": "ownerOf",
      "outputs": [
        {
          "internalType": "address",
          "name": "",
          "type": "address"
        }
      ],
      "stateMutability": "view",
      "type": "function"
    },
    {
      "inputs": [
        {
          "internalType": "address",
          "name": "from",
          "type": "address"
        },
        {
          "internalType": "address",
          "name": "to",
          "type": "address"
        },
        {
          "internalType": "uint256",
          "name": "tokenId",
          "type": "uint256"
        }
      ],
      "name": "safeTransferFrom",
      "outputs": [],
      "stateMutability": "nonpayable",
      "type": "function"
    },
    {
      "inputs": [
        {
          "internalType": "address",
          "name": "from",
          "type": "address"
        },
        {
          "internalType": "address",
          "name": "to",
          "type": "address"
        },
        {
          "internalType": "uint256",
          "name": "tokenId",
          "type": "uint256"
        },
        {
          "internalType": "bytes",
          "name": "data",
          "type": "bytes"
        }
      ],
      "name": "safeTransferFrom",
      "outputs": [],
      "stateMutability": "nonpayable",
      "type": "function"
    },
    {
      "inputs": [
        {
          "internalType": "address",
          "name": "operator",
          "type": "address"
        },
        {
          "internalType": "bool",
          "name": "approved",
          "type": "bool"
        }
      ],
      "name": "setApprovalForAll",
      "outputs": [],
      "stateMutability": "nonpayable",
      "type": "function"
    },
    {
      "inputs": [
        {
          "internalType": "bytes4",
          "name": "interfaceId",
          "type": "bytes4"
        }
      ],
      "name": "supportsInterface",
      "outputs": [
        {
          "internalType": "bool",
          "name": "",
          "type": "bool"
        }
      ],
      "stateMutability": "view",
      "type": "function"
    },
    {
      "inputs": [],
      "name": "symbol",
      "outputs": [
        {
          "internalType": "string",
          "name": "",
          "type": "string"
        }
      ],
      "stateMutability": "view",
      "type": "function"
    },
    {
      "inputs": [
        {
          "internalType": "uint256",
          "name": "tokenId",
          "type": "uint256"
        }
      ],
      "name": "toeknURI",
      "outputs": [
        {
          "internalType": "string",
          "name": "",
          "type": "string"
        }
      ],
      "stateMutability": "view",
      "type": "function"
    },
    {
      "inputs": [],
      "name": "tokenCounter",
      "outputs": [
        {
          "internalType": "uint256",
          "name": "",
          "type": "uint256"
        }
      ],
      "stateMutability": "view",
      "type": "function"
    },
    {
      "inputs": [
        {
          "internalType": "uint256",
          "name": "tokenId",
          "type": "uint256"
        }
      ],
      "name": "tokenURI",
      "outputs": [
        {
          "internalType": "string",
          "name": "",
          "type": "string"
        }
      ],
      "stateMutability": "view",
      "type": "function"
    },
    {
      "inputs": [
        {
          "internalType": "address",
          "name": "from",
          "type": "address"
        },
        {
          "internalType": "address",
          "name": "to",
          "type": "address"
        },
        {
          "internalType": "uint256",
          "name": "tokenId",
          "type": "uint256"
        }
      ],
      "name": "transferFrom",
      "outputs": [],
      "stateMutability": "nonpayable",
      "type": "function"
    }
  ],
  "bytecode": "0x60806040523480156200001157600080fd5b506040518060400160405280600481526020017f41706573000000000000000000000000000000000000000000000000000000008152506040518060400160405280600381526020017f4150450000000000000000000000000000000000000000000000000000000000815250816000908051906020019062000096929190620000c0565b508060019080519060200190620000af929190620000c0565b5050506000600681905550620001d5565b828054620000ce906200019f565b90600052602060002090601f016020900481019282620000f257600085556200013e565b82601f106200010d57805160ff19168380011785556200013e565b828001600101855582156200013e579182015b828111156200013d57825182559160200191906001019062000120565b5b5090506200014d919062000151565b5090565b5b808211156200016c57600081600090555060010162000152565b5090565b7f4e487b7100000000000000000000000000000000000000000000000000000000600052602260045260246000fd5b60006002820490506001821680620001b857607f821691505b60208210811415620001cf57620001ce62000170565b5b50919050565b6126c780620001e56000396000f3fe608060405234801561001057600080fd5b506004361061010b5760003560e01c806378ce9035116100a2578063b88d4fde11610071578063b88d4fde146102ca578063c2229fea146102e6578063c87b56dd14610304578063d082e38114610334578063e985e9c5146103525761010b565b806378ce90351461024257806384491d3a1461026057806395d89b4114610290578063a22cb465146102ae5761010b565b806323b872dd116100de57806323b872dd146101aa57806342842e0e146101c65780636352211e146101e257806370a08231146102125761010b565b806301ffc9a71461011057806306fdde0314610140578063081812fc1461015e578063095ea7b31461018e575b600080fd5b61012a600480360381019061012591906118e3565b610382565b604051610137919061192b565b60405180910390f35b610148610464565b60405161015591906119df565b60405180910390f35b61017860048036038101906101739190611a37565b6104f6565b6040516101859190611aa5565b60405180910390f35b6101a860048036038101906101a39190611aec565b61053c565b005b6101c460048036038101906101bf9190611b2c565b610654565b005b6101e060048036038101906101db9190611b2c565b6106b4565b005b6101fc60048036038101906101f79190611a37565b6106d4565b6040516102099190611aa5565b60405180910390f35b61022c60048036038101906102279190611b7f565b61075b565b6040516102399190611bbb565b60405180910390f35b61024a610813565b60405161025791906119df565b60405180910390f35b61027a60048036038101906102759190611a37565b61082f565b60405161028791906119df565b60405180910390f35b610298610851565b6040516102a591906119df565b60405180910390f35b6102c860048036038101906102c39190611c02565b6108e3565b005b6102e460048036038101906102df9190611d77565b6108f9565b005b6102ee61095b565b6040516102fb9190611bbb565b60405180910390f35b61031e60048036038101906103199190611a37565b610986565b60405161032b91906119df565b60405180910390f35b61033c6109ee565b6040516103499190611bbb565b60405180910390f35b61036c60048036038101906103679190611dfa565b6109f8565b604051610379919061192b565b60405180910390f35b60007f80ac58cd000000000000000000000000000000000000000000000000000000007bffffffffffffffffffffffffffffffffffffffffffffffffffffffff1916827bffffffffffffffffffffffffffffffffffffffffffffffffffffffff1916148061044d57507f5b5e139f000000000000000000000000000000000000000000000000000000007bffffffffffffffffffffffffffffffffffffffffffffffffffffffff1916827bffffffffffffffffffffffffffffffffffffffffffffffffffffffff1916145b8061045d575061045c82610a8c565b5b9050919050565b60606000805461047390611e69565b80601f016020809104026020016040519081016040528092919081815260200182805461049f90611e69565b80156104ec5780601f106104c1576101008083540402835291602001916104ec565b820191906000526020600020905b8154815290600101906020018083116104cf57829003601f168201915b5050505050905090565b600061050182610af6565b6004600083815260200190815260200160002060009054906101000a900473ffffffffffffffffffffffffffffffffffffffff169050919050565b6000610547826106d4565b90508073ffffffffffffffffffffffffffffffffffffffff168373ffffffffffffffffffffffffffffffffffffffff1614156105b8576040517f08c379a00000000000000000000000000000000000000000000000000000000081526004016105af90611f0d565b60405180910390fd5b8073ffffffffffffffffffffffffffffffffffffffff166105d7610b41565b73ffffffffffffffffffffffffffffffffffffffff161480610606575061060581610600610b41565b6109f8565b5b610645576040517f08c379a000000000000000000000000000000000000000000000000000000000815260040161063c90611f9f565b60405180910390fd5b61064f8383610b49565b505050565b61066561065f610b41565b82610c02565b6106a4576040517f08c379a000000000000000000000000000000000000000000000000000000000815260040161069b90612031565b60405180910390fd5b6106af838383610c97565b505050565b6106cf838383604051806020016040528060008152506108f9565b505050565b6000806106e083610f91565b9050600073ffffffffffffffffffffffffffffffffffffffff168173ffffffffffffffffffffffffffffffffffffffff161415610752576040517f08c379a00000000000000000000000000000000000000000000000000000000081526004016107499061209d565b60405180910390fd5b80915050919050565b60008073ffffffffffffffffffffffffffffffffffffffff168273ffffffffffffffffffffffffffffffffffffffff1614156107cc576040517f08c379a00000000000000000000000000000000000000000000000000000000081526004016107c39061212f565b60405180910390fd5b600360008373ffffffffffffffffffffffffffffffffffffffff1673ffffffffffffffffffffffffffffffffffffffff168152602001908152602001600020549050919050565b6040518060800160405280605181526020016126416051913981565b6060604051806080016040528060518152602001612641605191399050919050565b60606001805461086090611e69565b80601f016020809104026020016040519081016040528092919081815260200182805461088c90611e69565b80156108d95780601f106108ae576101008083540402835291602001916108d9565b820191906000526020600020905b8154815290600101906020018083116108bc57829003601f168201915b5050505050905090565b6108f56108ee610b41565b8383610fce565b5050565b61090a610904610b41565b83610c02565b610949576040517f08c379a000000000000000000000000000000000000000000000000000000000815260040161094090612031565b60405180910390fd5b6109558484848461113b565b50505050565b600061096933600654611197565b6001600654610978919061217e565b600681905550600654905090565b606061099182610af6565b600061099b6111b5565b905060008151116109bb57604051806020016040528060008152506109e6565b806109c5846111cc565b6040516020016109d6929190612210565b6040516020818303038152906040525b915050919050565b6000600654905090565b6000600560008473ffffffffffffffffffffffffffffffffffffffff1673ffffffffffffffffffffffffffffffffffffffff16815260200190815260200160002060008373ffffffffffffffffffffffffffffffffffffffff1673ffffffffffffffffffffffffffffffffffffffff16815260200190815260200160002060009054906101000a900460ff16905092915050565b60007f01ffc9a7000000000000000000000000000000000000000000000000000000007bffffffffffffffffffffffffffffffffffffffffffffffffffffffff1916827bffffffffffffffffffffffffffffffffffffffffffffffffffffffff1916149050919050565b610aff816112a4565b610b3e576040517f08c379a0000000000000000000000000000000000000000000000000000000008152600401610b359061209d565b60405180910390fd5b50565b600033905090565b816004600083815260200190815260200160002060006101000a81548173ffffffffffffffffffffffffffffffffffffffff021916908373ffffffffffffffffffffffffffffffffffffffff160217905550808273ffffffffffffffffffffffffffffffffffffffff16610bbc836106d4565b73ffffffffffffffffffffffffffffffffffffffff167f8c5be1e5ebec7d5bd14f71427d1e84f3dd0314c0f7b2291e5b200ac8c7c3b92560405160405180910390a45050565b600080610c0e836106d4565b90508073ffffffffffffffffffffffffffffffffffffffff168473ffffffffffffffffffffffffffffffffffffffff161480610c505750610c4f81856109f8565b5b80610c8e57508373ffffffffffffffffffffffffffffffffffffffff16610c76846104f6565b73ffffffffffffffffffffffffffffffffffffffff16145b91505092915050565b8273ffffffffffffffffffffffffffffffffffffffff16610cb7826106d4565b73ffffffffffffffffffffffffffffffffffffffff1614610d0d576040517f08c379a0000000000000000000000000000000000000000000000000000000008152600401610d04906122a6565b60405180910390fd5b600073ffffffffffffffffffffffffffffffffffffffff168273ffffffffffffffffffffffffffffffffffffffff161415610d7d576040517f08c379a0000000000000000000000000000000000000000000000000000000008152600401610d7490612338565b60405180910390fd5b610d8a83838360016112e5565b8273ffffffffffffffffffffffffffffffffffffffff16610daa826106d4565b73ffffffffffffffffffffffffffffffffffffffff1614610e00576040517f08c379a0000000000000000000000000000000000000000000000000000000008152600401610df7906122a6565b60405180910390fd5b6004600082815260200190815260200160002060006101000a81549073ffffffffffffffffffffffffffffffffffffffff02191690556001600360008573ffffffffffffffffffffffffffffffffffffffff1673ffffffffffffffffffffffffffffffffffffffff168152602001908152602001600020600082825403925050819055506001600360008473ffffffffffffffffffffffffffffffffffffffff1673ffffffffffffffffffffffffffffffffffffffff16815260200190815260200160002060008282540192505081905550816002600083815260200190815260200160002060006101000a81548173ffffffffffffffffffffffffffffffffffffffff021916908373ffffffffffffffffffffffffffffffffffffffff160217905550808273ffffffffffffffffffffffffffffffffffffffff168473ffffffffffffffffffffffffffffffffffffffff167fddf252ad1be2c89b69c2b068fc378daa952ba7f163c4a11628f55a4df523b3ef60405160405180910390a4610f8c83838360016112eb565b505050565b60006002600083815260200190815260200160002060009054906101000a900473ffffffffffffffffffffffffffffffffffffffff169050919050565b8173ffffffffffffffffffffffffffffffffffffffff168373ffffffffffffffffffffffffffffffffffffffff16141561103d576040517f08c379a0000000000000000000000000000000000000000000000000000000008152600401611034906123a4565b60405180910390fd5b80600560008573ffffffffffffffffffffffffffffffffffffffff1673ffffffffffffffffffffffffffffffffffffffff16815260200190815260200160002060008473ffffffffffffffffffffffffffffffffffffffff1673ffffffffffffffffffffffffffffffffffffffff16815260200190815260200160002060006101000a81548160ff0219169083151502179055508173ffffffffffffffffffffffffffffffffffffffff168373ffffffffffffffffffffffffffffffffffffffff167f17307eab39ab6107e8899845ad3d59bd9653f200f220920489ca2b5937696c318360405161112e919061192b565b60405180910390a3505050565b611146848484610c97565b611152848484846112f1565b611191576040517f08c379a000000000000000000000000000000000000000000000000000000000815260040161118890612436565b60405180910390fd5b50505050565b6111b1828260405180602001604052806000815250611488565b5050565b606060405180602001604052806000815250905090565b6060600060016111db846114e3565b01905060008167ffffffffffffffff8111156111fa576111f9611c4c565b5b6040519080825280601f01601f19166020018201604052801561122c5781602001600182028036833780820191505090505b509050600082602001820190505b600115611299578080600190039150507f3031323334353637383961626364656600000000000000000000000000000000600a86061a8153600a858161128357611282612456565b5b049450600085141561129457611299565b61123a565b819350505050919050565b60008073ffffffffffffffffffffffffffffffffffffffff166112c683610f91565b73ffffffffffffffffffffffffffffffffffffffff1614159050919050565b50505050565b50505050565b60006113128473ffffffffffffffffffffffffffffffffffffffff16611636565b1561147b578373ffffffffffffffffffffffffffffffffffffffff1663150b7a0261133b610b41565b8786866040518563ffffffff1660e01b815260040161135d94939291906124da565b602060405180830381600087803b15801561137757600080fd5b505af19250505080156113a857506040513d601f19601f820116820180604052508101906113a5919061253b565b60015b61142b573d80600081146113d8576040519150601f19603f3d011682016040523d82523d6000602084013e6113dd565b606091505b50600081511415611423576040517f08c379a000000000000000000000000000000000000000000000000000000000815260040161141a90612436565b60405180910390fd5b805181602001fd5b63150b7a0260e01b7bffffffffffffffffffffffffffffffffffffffffffffffffffffffff1916817bffffffffffffffffffffffffffffffffffffffffffffffffffffffff191614915050611480565b600190505b949350505050565b6114928383611659565b61149f60008484846112f1565b6114de576040517f08c379a00000000000000000000000000000000000000000000000000000000081526004016114d590612436565b60405180910390fd5b505050565b600080600090507a184f03e93ff9f4daa797ed6e38ed64bf6a1f0100000000000000008310611541577a184f03e93ff9f4daa797ed6e38ed64bf6a1f010000000000000000838161153757611536612456565b5b0492506040810190505b6d04ee2d6d415b85acef8100000000831061157e576d04ee2d6d415b85acef8100000000838161157457611573612456565b5b0492506020810190505b662386f26fc1000083106115ad57662386f26fc1000083816115a3576115a2612456565b5b0492506010810190505b6305f5e10083106115d6576305f5e10083816115cc576115cb612456565b5b0492506008810190505b61271083106115fb5761271083816115f1576115f0612456565b5b0492506004810190505b6064831061161e576064838161161457611613612456565b5b0492506002810190505b600a831061162d576001810190505b80915050919050565b6000808273ffffffffffffffffffffffffffffffffffffffff163b119050919050565b600073ffffffffffffffffffffffffffffffffffffffff168273ffffffffffffffffffffffffffffffffffffffff1614156116c9576040517f08c379a00000000000000000000000000000000000000000000000000000000081526004016116c0906125b4565b60405180910390fd5b6116d2816112a4565b15611712576040517f08c379a000000000000000000000000000000000000000000000000000000000815260040161170990612620565b60405180910390fd5b6117206000838360016112e5565b611729816112a4565b15611769576040517f08c379a000000000000000000000000000000000000000000000000000000000815260040161176090612620565b60405180910390fd5b6001600360008473ffffffffffffffffffffffffffffffffffffffff1673ffffffffffffffffffffffffffffffffffffffff16815260200190815260200160002060008282540192505081905550816002600083815260200190815260200160002060006101000a81548173ffffffffffffffffffffffffffffffffffffffff021916908373ffffffffffffffffffffffffffffffffffffffff160217905550808273ffffffffffffffffffffffffffffffffffffffff16600073ffffffffffffffffffffffffffffffffffffffff167fddf252ad1be2c89b69c2b068fc378daa952ba7f163c4a11628f55a4df523b3ef60405160405180910390a46118736000838360016112eb565b5050565b6000604051905090565b600080fd5b600080fd5b60007fffffffff0000000000000000000000000000000000000000000000000000000082169050919050565b6118c08161188b565b81146118cb57600080fd5b50565b6000813590506118dd816118b7565b92915050565b6000602082840312156118f9576118f8611881565b5b6000611907848285016118ce565b91505092915050565b60008115159050919050565b61192581611910565b82525050565b6000602082019050611940600083018461191c565b92915050565b600081519050919050565b600082825260208201905092915050565b60005b83811015611980578082015181840152602081019050611965565b8381111561198f576000848401525b50505050565b6000601f19601f8301169050919050565b60006119b182611946565b6119bb8185611951565b93506119cb818560208601611962565b6119d481611995565b840191505092915050565b600060208201905081810360008301526119f981846119a6565b905092915050565b6000819050919050565b611a1481611a01565b8114611a1f57600080fd5b50565b600081359050611a3181611a0b565b92915050565b600060208284031215611a4d57611a4c611881565b5b6000611a5b84828501611a22565b91505092915050565b600073ffffffffffffffffffffffffffffffffffffffff82169050919050565b6000611a8f82611a64565b9050919050565b611a9f81611a84565b82525050565b6000602082019050611aba6000830184611a96565b92915050565b611ac981611a84565b8114611ad457600080fd5b50565b600081359050611ae681611ac0565b92915050565b60008060408385031215611b0357611b02611881565b5b6000611b1185828601611ad7565b9250506020611b2285828601611a22565b9150509250929050565b600080600060608486031215611b4557611b44611881565b5b6000611b5386828701611ad7565b9350506020611b6486828701611ad7565b9250506040611b7586828701611a22565b9150509250925092565b600060208284031215611b9557611b94611881565b5b6000611ba384828501611ad7565b91505092915050565b611bb581611a01565b82525050565b6000602082019050611bd06000830184611bac565b92915050565b611bdf81611910565b8114611bea57600080fd5b50565b600081359050611bfc81611bd6565b92915050565b60008060408385031215611c1957611c18611881565b5b6000611c2785828601611ad7565b9250506020611c3885828601611bed565b9150509250929050565b600080fd5b600080fd5b7f4e487b7100000000000000000000000000000000000000000000000000000000600052604160045260246000fd5b611c8482611995565b810181811067ffffffffffffffff82111715611ca357611ca2611c4c565b5b80604052505050565b6000611cb6611877565b9050611cc28282611c7b565b919050565b600067ffffffffffffffff821115611ce257611ce1611c4c565b5b611ceb82611995565b9050602081019050919050565b82818337600083830152505050565b6000611d1a611d1584611cc7565b611cac565b905082815260208101848484011115611d3657611d35611c47565b5b611d41848285611cf8565b509392505050565b600082601f830112611d5e57611d5d611c42565b5b8135611d6e848260208601611d07565b91505092915050565b60008060008060808587031215611d9157611d90611881565b5b6000611d9f87828801611ad7565b9450506020611db087828801611ad7565b9350506040611dc187828801611a22565b925050606085013567ffffffffffffffff811115611de257611de1611886565b5b611dee87828801611d49565b91505092959194509250565b60008060408385031215611e1157611e10611881565b5b6000611e1f85828601611ad7565b9250506020611e3085828601611ad7565b9150509250929050565b7f4e487b7100000000000000000000000000000000000000000000000000000000600052602260045260246000fd5b60006002820490506001821680611e8157607f821691505b60208210811415611e9557611e94611e3a565b5b50919050565b7f4552433732313a20617070726f76616c20746f2063757272656e74206f776e6560008201527f7200000000000000000000000000000000000000000000000000000000000000602082015250565b6000611ef7602183611951565b9150611f0282611e9b565b604082019050919050565b60006020820190508181036000830152611f2681611eea565b9050919050565b7f4552433732313a20617070726f76652063616c6c6572206973206e6f7420746f60008201527f6b656e206f776e6572206f7220617070726f76656420666f7220616c6c000000602082015250565b6000611f89603d83611951565b9150611f9482611f2d565b604082019050919050565b60006020820190508181036000830152611fb881611f7c565b9050919050565b7f4552433732313a2063616c6c6572206973206e6f7420746f6b656e206f776e6560008201527f72206f7220617070726f76656400000000000000000000000000000000000000602082015250565b600061201b602d83611951565b915061202682611fbf565b604082019050919050565b6000602082019050818103600083015261204a8161200e565b9050919050565b7f4552433732313a20696e76616c696420746f6b656e2049440000000000000000600082015250565b6000612087601883611951565b915061209282612051565b602082019050919050565b600060208201905081810360008301526120b68161207a565b9050919050565b7f4552433732313a2061646472657373207a65726f206973206e6f74206120766160008201527f6c6964206f776e65720000000000000000000000000000000000000000000000602082015250565b6000612119602983611951565b9150612124826120bd565b604082019050919050565b600060208201905081810360008301526121488161210c565b9050919050565b7f4e487b7100000000000000000000000000000000000000000000000000000000600052601160045260246000fd5b600061218982611a01565b915061219483611a01565b9250827fffffffffffffffffffffffffffffffffffffffffffffffffffffffffffffffff038211156121c9576121c861214f565b5b828201905092915050565b600081905092915050565b60006121ea82611946565b6121f481856121d4565b9350612204818560208601611962565b80840191505092915050565b600061221c82856121df565b915061222882846121df565b91508190509392505050565b7f4552433732313a207472616e736665722066726f6d20696e636f72726563742060008201527f6f776e6572000000000000000000000000000000000000000000000000000000602082015250565b6000612290602583611951565b915061229b82612234565b604082019050919050565b600060208201905081810360008301526122bf81612283565b9050919050565b7f4552433732313a207472616e7366657220746f20746865207a65726f2061646460008201527f7265737300000000000000000000000000000000000000000000000000000000602082015250565b6000612322602483611951565b915061232d826122c6565b604082019050919050565b6000602082019050818103600083015261235181612315565b9050919050565b7f4552433732313a20617070726f766520746f2063616c6c657200000000000000600082015250565b600061238e601983611951565b915061239982612358565b602082019050919050565b600060208201905081810360008301526123bd81612381565b9050919050565b7f4552433732313a207472616e7366657220746f206e6f6e20455243373231526560008201527f63656976657220696d706c656d656e7465720000000000000000000000000000602082015250565b6000612420603283611951565b915061242b826123c4565b604082019050919050565b6000602082019050818103600083015261244f81612413565b9050919050565b7f4e487b7100000000000000000000000000000000000000000000000000000000600052601260045260246000fd5b600081519050919050565b600082825260208201905092915050565b60006124ac82612485565b6124b68185612490565b93506124c6818560208601611962565b6124cf81611995565b840191505092915050565b60006080820190506124ef6000830187611a96565b6124fc6020830186611a96565b6125096040830185611bac565b818103606083015261251b81846124a1565b905095945050505050565b600081519050612535816118b7565b92915050565b60006020828403121561255157612550611881565b5b600061255f84828501612526565b91505092915050565b7f4552433732313a206d696e7420746f20746865207a65726f2061646472657373600082015250565b600061259e602083611951565b91506125a982612568565b602082019050919050565b600060208201905081810360008301526125cd81612591565b9050919050565b7f4552433732313a20746f6b656e20616c7265616479206d696e74656400000000600082015250565b600061260a601c83611951565b9150612615826125d4565b602082019050919050565b60006020820190508181036000830152612639816125fd565b905091905056fe697066733a2f2f516d63794439745a4b6a46576d47686d6e4d6e5a6b55314554517277514c674479744d436d7968354755547a614a66696c656e616d653d426974636f696e417065343430392e6a736f6ea26469706673582212201fbdd265bc0a67c40556f7e1ed15e4e7458bde50f93255915d4a41dc558d06ca64736f6c63430008080033",
  "linkReferences": {},
  "deployedLinkReferences": {}
}